{
  "abi": [
    {
      "inputs": [
        {
          "internalType": "bytes",
          "name": "proof",
          "type": "bytes"
        },
        {
          "internalType": "uint256[]",
          "name": "pubSignals",
          "type": "uint256[]"
        }
      ],
      "name": "verifyProof",
      "outputs": [
        {
          "internalType": "bool",
          "name": "",
          "type": "bool"
        }
      ],
      "stateMutability": "view",
      "type": "function"
    }
  ],
  "bytecode": {
    "object": "0x608060405234801561001057600080fd5b5061156a806100206000396000f3fe608060405234801561001057600080fd5b506004361061002b5760003560e01c80631e8e1e1314610030575b600080fd5b61015a6004803603604081101561004657600080fd5b81019060208101813564010000000081111561006157600080fd5b82018360208201111561007357600080fd5b8035906020019184600183028401116401000000008311171561009557600080fd5b91908080601f01602080910402602001604051908101604052809392919081815260200183838082843760009201919091525092959493602081019350359150506401000000008111156100e857600080fd5b8201836020820111156100fa57600080fd5b8035906020019184602083028401116401000000008311171561011c57600080fd5b91908080602002602001604051908101604052809392919081815260200183836020028082843760009201919091525092955061016e945050505050565b604080519115158252519081900360200190f35b60006114a7565b600080600184846000805b82156101a2575092938183058581029091039350909181830290039081610180565b50505060018111156101b357600080fd5b505060008112156101c15783015b9392505050565b60405181602084028301815160208301925060005b8284101561020e578185526000805160206115158339815191528451830991506020850194506020840193506101dd565b61022660008051602061151583398151915283610175565b91506020850394506020840393508592505b8284111561027d5760008051602061151583398151915285518309905060008051602061151583398151915284518309818552601f1995860195909401939150610238565b5090915250505050565b60008051602061151583398151915281106102a6576000805260206000f35b50565b6103208151146102bd576000805260206000f35b6102cb610260820151610287565b6102d9610280820151610287565b6102e76102a0820151610287565b6102f56102c0820151610287565b6103036102e0820151610287565b610311610300820151610287565b6102a6610320820151610287565b60008060208501516102e085015260408501516103008501526020830151610320850152602080018301516103408501526040602001830151610360850152606060200183015161038085015260806020018301516103a085015260a06020018301516103c08501526000805160206115158339815191526101006102e0860120069050806020850152600080516020611515833981519152602080860120066040850152600080516020611515833981519152604060e085012006600085015260008051602061151583398151915260c061012085012006915081606085015260008051602061151583398151915282820960a085015250600080516020611515833981519152818209905060008051602061151583398151915281820990506000805160206115158339815191528182099050600080516020611515833981519152818209905060008051602061151583398151915281820990506000805160206115158339815191528182099050600080516020611515833981519152818209905060008051602061151583398151915281820990506000805160206115158339815191528182099050600080516020611515833981519152818209905060008051602061151583398151915281820990506000805160206115158339815191528182099050600080516020611515833981519152818209905060008051602061151583398151915281820990506000805160206115158339815191528182099050806080840152600080516020611515833981519152806001830301069050806102608401528061028084015260008051602061151583398151915260e0610260840120068060c085015260008051602061151583398151915281820991508160e0850152600080516020611515833981519152818309915081610100850152600080516020611515833981519152818309915081610120850152600080516020611515833981519152818309915081610140850152600080516020611515833981519152818309610160850152505060806101e0919091012060008051602061151583398151915290066101809091015250565b600160008051602061151583398151915280600080516020611515833981519152836060860151030106618000096102a08301526000805160206115158339815191527f2d1ba66f5941dc91017171fa69ec2bd0022a2a2d4115a009a93458fd4e26ecfb8209905060008051602061151583398151915280600080516020611515833981519152836060860151030106618000096102c08301526106e1600361028084016101c8565b61026082015160019150600080516020611515833981519152816102a0850151096102a08401526000805160206115158339815191527f2d1ba66f5941dc91017171fa69ec2bd0022a2a2d4115a009a93458fd4e26ecfb8309915060008051602061151583398151915280826102c08601510983096102c0840152505050565b60006000805160206115158339815191528060008051602061151583398151915260208601516102a0860151098303010690506000805160206115158339815191528060008051602061151583398151915260408601516102c086015109830301069050806101a0830152505050565b60008060006000805160206115158339815191526101a086015161032086015108925060008051602061151583398151915260208601516102c08601510991506000805160206115158339815191526102608501518308915060008051602061151583398151915260408601518308915060008051602061151583398151915260208601516102e086015109905060008051602061151583398151915261028085015182089050600080516020611515833981519152604086015182089050600080516020611515833981519152818309915060008051602061151583398151915260408601516102a086015108905060008051602061151583398151915281830991506000805160206115158339815191526103008501518309915060008051602061151583398151915260008601518309915060008051602061151583398151915260008601516102a0870151099050600080516020611515833981519152600086015182099050600080516020611515833981519152818308915050600080516020611515833981519152816000805160206115158339815191528401030691505060008051602061151583398151915261028084015182099050806101c0840152505050565b81518152602091820151910152565b6040518151815260208201516020820152825160408201526020830151606082015260408260808360066107d05a03fa9050806109eb576000805260206000f35b505050565b6000604051835181526020840151602082015284604082015260408160608360076107d05a03fa915081610a28576000805260206000f35b825160408201526020830151606082015260408360808360066107d05a03fa91505080610a59576000805260206000f35b50505050565b600060405183815284602082015285604082015260408160608360076107d05a03fa915081610a92576000805260206000f35b825160408201526020830151606082015260408360808360066107d05a03fa91505080610ac3576000805260206000f35b5050505050565b600060405183815284602082015285604082015260408360608360076107d05a03fa91505080610ac3576000805260206000f35b6101e08201610b116101e083018261099b565b6109eb6101808401516102208401836109f0565b600080610220840160008051602061151583398151915260c0860151610260860151099250610b96837f0b92a79d904486e03eb779a9380c4b5d597eb7cb093fc860d66e685120e3de097f08111c2360af03de2b10087e2a1d3aac69b55e0d407b001c0b4f86d4fe4cf15e84610aca565b60008051602061151583398151915261028085015184099250610bfb837f203ad70dc76e221cd91f8da937222ad89ecb39ce151d5d55d93605ff3f1b18d07f2a2975e785da47400d81f09d81429fe5e0a79087f285af827d6c683f716d7b4f84610a5f565b60008051602061151583398151915260c0860151610280860151099250610c64837f019592a587fbf0cc565bcefacfddc900ca9f3cb6cac6759d57211c5d52fe7a037f054e47aa0b19c3c009b3987d198357568335819aefc9ec6f5f683bc111a888c684610a5f565b60008051602061151583398151915260c08601516102a0860151099250610ccd837f1d3dbc59761c40588f67727bd6fe672537dbc14edac8cec81f7f1f617684e6c77f1e0aa6a681440ec0b2f6fbb985cee1c55e141358eaebd98060491e1a3245331384610a5f565b60c08501519250610d20837f2fa500715e5bedf717e6205b601035ef83f9f3df44925152691b89cd1be54ab07f211f49a5e7299a428190410b3fc2a4357578c6d0c0710fec78b80441b084722884610a5f565b60008051602061151583398151915260a086015161026086015108925060008051602061151583398151915260408601518408925060008051602061151583398151915260a0860151600209915060008051602061151583398151915261028085015183089150600080516020611515833981519152604086015183089150600080516020611515833981519152828409925060008051602061151583398151915260a086015160030991506000805160206115158339815191526102a085015183089150600080516020611515833981519152604086015183089150600080516020611515833981519152828409925060008051602061151583398151915260008601518409925060008051602061151583398151915260c08601518409925060008051602061151583398151915260008601516102a087015109915060008051602061151583398151915260008601518309915060008051602061151583398151915260c086015183099150600080516020611515833981519152828408925060008051602061151583398151915261018086015184089250610ec98360e08601836109f0565b6000805160206115158339815191526102c08501516020870151099250600080516020611515833981519152610260850151840892506000805160206115158339815191526040860151840892506000805160206115158339815191526102e0850151602087015109915060008051602061151583398151915261028085015183089150600080516020611515833981519152604086015183089150600080516020611515833981519152828409925060008051602061151583398151915260008601518409925060008051602061151583398151915260c0860151840992506000805160206115158339815191526020860151840992506000805160206115158339815191526103008501518409600080516020611515833981519152908103069250611039837f2752d0e19876b31a859c78a7acc11a8f4b534a5b521a14cf2aab7f6e8bdd6fe57f091f830b9c52b22d2c580a0e3d1dcab915e30c46cc95d5e58e8d4d4263736cff84610a5f565b6110476101208501826109aa565b6080850151925061105d836101608601836109f0565b6000805160206115158339815191528384099250611080836101a08601836109f0565b61109260e086015160208601836109f0565b6110a561010086015160608601836109f0565b6110b861012086015160a08601836109f0565b6111096101408601517f225f6ea8cc80525c716b133f00dbb2ce4584769c3f2f9fcb2a3ffe1da936bc9f7f03b687dbb019cea7b81c9f6237401d651b527ce1537472a4f106238b9b400d8784610a5f565b61115a6101608601517f1dcaaaeebe01252dfe22897256206f962fefb1a39f138729fb6ddfe69f5af4997f2cf398c3f1541b9afc3f52d6ae368b3cdae665fcad2326446fa3f16714b8692284610a5f565b6101c085015192506000805160206115158339815191528060c087015161032087015109840892506000805160206115158339815191528060e08701516102608701510984089250600080516020611515833981519152806101008701516102808701510984089250600080516020611515833981519152806101208701516102a08701510984089250600080516020611515833981519152806101408701516102c08701510984089250600080516020611515833981519152806101608701516102e0870151098408925060008051602061151583398151915280610180870151610300870151098408600080516020611515833981519152908103069250611268836002600184610a5f565b6060850151925061127e836101e08601836109f0565b60008051602061151583398151915260608601516101808701510992506000805160206115158339815191527f2d1ba66f5941dc91017171fa69ec2bd0022a2a2d4115a009a93458fd4e26ecfb84099250610ac3836102208601836109f0565b60006040516101e0830151815260206101e08401015160208201527f26186a2d65ee4d2f9c9a5b91f86597d35f192cd120caf7e935d8443d1938e23d60408201527f30441fd1b5d3370482c42152a8899027716989a6996c2535bc9f7fee8aaef79e60608201527f1970ea81dd6992adfbc571effb03503adbbb6a857f578403c6c40e22d65b3c0260808201527f054793348f12c0cf5622c340573cb277586319de359ab9389778f689786b1e4860a082015261022083015160c08201526020610220840101517f30644e72e131a029b85045b68181585d97816a916871ca8d3c208c16d87cfd47817f30644e72e131a029b85045b68181585d97816a916871ca8d3c208c16d87cfd47030690508060e0830152507f198e9393920d483a7260bfb731fb5d25f1aa493335a9e71297e485b7aef312c26101008201527f1800deef121f1e76426a00665e5c4479674322d4f75edadd46debd5cd992f6ed6101208201527f090689d0585ff075ec9e99ad690c3395bc4b313370b38ef355acdadcd122975b6101408201527f12c85ea5db8c6deb4aab71808dcb408fe3d1e7690c43d37b4ce6cc0166fa7daa6101608201526020816101808360086107d05a03fa90511692915050565b6040516102e081016040526114bb846102a9565b6114c683828661031f565b6114cf81610638565b6114d98382610761565b6114e381856107d1565b6114ed8185610afe565b6114f78185610b25565b611500816112de565b6102e0820360405280600052505060206000f3fe30644e72e131a029b85045b68181585d2833e84879b9709143e1f593f0000001a2646970667358221220172815f5f70b73f43d14a73673c27517c117c47271cd397d30ba94d0beb7133864736f6c63430007060033",
    "linkReferences": {}
  },
  "methodIdentifiers": {
    "verifyProof(bytes,uint256[])": "1e8e1e13"
  },
  "id": 9
}