{
  "abi": [
    {
      "inputs": [
        {
          "internalType": "bytes",
          "name": "proof",
          "type": "bytes"
        },
        {
          "internalType": "uint256[]",
          "name": "pubSignals",
          "type": "uint256[]"
        }
      ],
      "name": "verifyProof",
      "outputs": [
        {
          "internalType": "bool",
          "name": "",
          "type": "bool"
        }
      ],
      "stateMutability": "view",
      "type": "function"
    }
  ],
  "bytecode": {
    "object": "0x608060405234801561001057600080fd5b5061157d806100206000396000f3fe608060405234801561001057600080fd5b506004361061002b5760003560e01c80631e8e1e1314610030575b600080fd5b61015a6004803603604081101561004657600080fd5b81019060208101813564010000000081111561006157600080fd5b82018360208201111561007357600080fd5b8035906020019184600183028401116401000000008311171561009557600080fd5b91908080601f01602080910402602001604051908101604052809392919081815260200183838082843760009201919091525092959493602081019350359150506401000000008111156100e857600080fd5b8201836020820111156100fa57600080fd5b8035906020019184602083028401116401000000008311171561011c57600080fd5b91908080602002602001604051908101604052809392919081815260200183836020028082843760009201919091525092955061016e945050505050565b604080519115158252519081900360200190f35b60006114ba565b600080600184846000805b82156101a2575092938183058581029091039350909181830290039081610180565b50505060018111156101b357600080fd5b505060008112156101c15783015b9392505050565b60405181602084028301815160208301925060005b8284101561020e578185526000805160206115288339815191528451830991506020850194506020840193506101dd565b61022660008051602061152883398151915283610175565b91506020850394506020840393508592505b8284111561027d5760008051602061152883398151915285518309905060008051602061152883398151915284518309818552601f1995860195909401939150610238565b5090915250505050565b60008051602061152883398151915281106102a6576000805260206000f35b50565b6103208151146102bd576000805260206000f35b6102cb610260820151610287565b6102d9610280820151610287565b6102e76102a0820151610287565b6102f56102c0820151610287565b6103036102e0820151610287565b610311610300820151610287565b6102a6610320820151610287565b60008060208501516102e085015260408501516103008501526020830151610320850152602080018301516103408501526040602001830151610360850152606060200183015161038085015260806020018301516103a085015260a06020018301516103c08501526000805160206115288339815191526101006102e0860120069050806020850152600080516020611528833981519152602080860120066040850152600080516020611528833981519152604060e085012006600085015260008051602061152883398151915260c061012085012006915081606085015260008051602061152883398151915282820960a0850152506000805160206115288339815191528182099050600080516020611528833981519152818209905060008051602061152883398151915281820990506000805160206115288339815191528182099050600080516020611528833981519152818209905060008051602061152883398151915281820990506000805160206115288339815191528182099050600080516020611528833981519152818209905060008051602061152883398151915281820990506000805160206115288339815191528182099050600080516020611528833981519152818209905060008051602061152883398151915281820990506000805160206115288339815191528182099050600080516020611528833981519152818209905060008051602061152883398151915281820990506000805160206115288339815191528182099050806080840152600080516020611528833981519152806001830301069050806102608401528061028084015260008051602061152883398151915260e0610260840120068060c085015260008051602061152883398151915281820991508160e0850152600080516020611528833981519152818309915081610100850152600080516020611528833981519152818309915081610120850152600080516020611528833981519152818309915081610140850152600080516020611528833981519152818309610160850152505060806101e0919091012060008051602061152883398151915290066101809091015250565b60016000805160206115288339815191528060008051602061152883398151915283606086015103010662010000096102a08301526000805160206115288339815191527eeeb2cb5981ed45649abebde081dcff16c8601de4347e7dd1628ba2daac43b7820990506000805160206115288339815191528060008051602061152883398151915283606086015103010662010000096102c08301526106f6600361028084016101c8565b61026082015160019150600080516020611528833981519152816102a0850151096102a08401526000805160206115288339815191527eeeb2cb5981ed45649abebde081dcff16c8601de4347e7dd1628ba2daac43b78309915060008051602061152883398151915280826102c08601510983096102c0840152505050565b60006000805160206115288339815191528060008051602061152883398151915260208601516102a0860151098303010690506000805160206115288339815191528060008051602061152883398151915260408601516102c086015109830301069050806101a0830152505050565b60008060006000805160206115288339815191526101a086015161032086015108925060008051602061152883398151915260208601516102c08601510991506000805160206115288339815191526102608501518308915060008051602061152883398151915260408601518308915060008051602061152883398151915260208601516102e086015109905060008051602061152883398151915261028085015182089050600080516020611528833981519152604086015182089050600080516020611528833981519152818309915060008051602061152883398151915260408601516102a086015108905060008051602061152883398151915281830991506000805160206115288339815191526103008501518309915060008051602061152883398151915260008601518309915060008051602061152883398151915260008601516102a0870151099050600080516020611528833981519152600086015182099050600080516020611528833981519152818308915050600080516020611528833981519152816000805160206115288339815191528401030691505060008051602061152883398151915261028084015182099050806101c0840152505050565b81518152602091820151910152565b6040518151815260208201516020820152825160408201526020830151606082015260408260808360066107d05a03fa9050806109ff576000805260206000f35b505050565b6000604051835181526020840151602082015284604082015260408160608360076107d05a03fa915081610a3c576000805260206000f35b825160408201526020830151606082015260408360808360066107d05a03fa91505080610a6d576000805260206000f35b50505050565b600060405183815284602082015285604082015260408160608360076107d05a03fa915081610aa6576000805260206000f35b825160408201526020830151606082015260408360808360066107d05a03fa91505080610ad7576000805260206000f35b5050505050565b600060405183815284602082015285604082015260408360608360076107d05a03fa91505080610ad7576000805260206000f35b6101e08201610b256101e08301826109af565b6109ff610180840151610220840183610a04565b600080610220840160008051602061152883398151915260c0860151610260860151099250610baa837f06989fbcb399f5d11ed4df10d96f931ee17113c3e6f7f837c08c028e08d7e45c7f1b04eee529090cb38cda26d1cd56524615df43b0e1a825bd85ff9a193d7f7d6e84610ade565b60008051602061152883398151915261028085015184099250610c0f837f22a7c4d81096d2f238cbebbb4643e9c37b3408226dc680cf9159fa36ea0c6d817f10ef9a1075102c26c48717cbe78eab75eee3efa23002004fef0f0a452ad1530a84610a73565b60008051602061152883398151915260c0860151610280860151099250610c78837f0bdacd896791bb725589c1ed1740c320cb3e8b995b7ba68ca68a75aa7334f2ab7f2e534c40f8cb84146669866e2cbb6c0ca68f86b273c35e1e9dcf31ba221a8aa884610a73565b60008051602061152883398151915260c08601516102a0860151099250610ce1837f122630d9ab4026d5b33419eef8a4fa3b265d9d9287fb15c7675a544fe7bdd9a67f1ca2afa57339344627aaa9d869a9d86ec830e708653f9089fedc0682cab38e8384610a73565b60c08501519250610d34837f1160ffab1afa591a46cad48232f20ba5349d704bb82e791d17f82524e25ac0737f205fe38f803092eeed42d756d792d37043d4aaed91fee1184a00f0c4e6a4826d84610a73565b60008051602061152883398151915260a086015161026086015108925060008051602061152883398151915260408601518408925060008051602061152883398151915260a0860151600209915060008051602061152883398151915261028085015183089150600080516020611528833981519152604086015183089150600080516020611528833981519152828409925060008051602061152883398151915260a086015160030991506000805160206115288339815191526102a085015183089150600080516020611528833981519152604086015183089150600080516020611528833981519152828409925060008051602061152883398151915260008601518409925060008051602061152883398151915260c08601518409925060008051602061152883398151915260008601516102a087015109915060008051602061152883398151915260008601518309915060008051602061152883398151915260c086015183099150600080516020611528833981519152828408925060008051602061152883398151915261018086015184089250610edd8360e0860183610a04565b6000805160206115288339815191526102c08501516020870151099250600080516020611528833981519152610260850151840892506000805160206115288339815191526040860151840892506000805160206115288339815191526102e0850151602087015109915060008051602061152883398151915261028085015183089150600080516020611528833981519152604086015183089150600080516020611528833981519152828409925060008051602061152883398151915260008601518409925060008051602061152883398151915260c086015184099250600080516020611528833981519152602086015184099250600080516020611528833981519152610300850151840960008051602061152883398151915290810306925061104d837f0c2459a0d25f859391a1731e46e4374a5ca41f84bf87c8a69a47c8f1546e99ac7f14cbedbff7f010e770359b4855f2ffa5b48d291d5c33f2dfb535064bdc487ae184610a73565b61105b6101208501826109be565b6080850151925061107183610160860183610a04565b6000805160206115288339815191528384099250611094836101a0860183610a04565b6110a660e08601516020860183610a04565b6110b96101008601516060860183610a04565b6110cc61012086015160a0860183610a04565b61111d6101408601517f29fdb911991979b22d97222fa69970cbdc196755565d29bccca575bdd45a636f7f0272665acc59cc8fc8d44091d5901b60a9422da623d03a2376ff3433d95f951c84610a73565b61116e6101608601517f095fe8b7bf48ec802bed11c73a4d7023f975966846ea428e5ae21161b8515ec87f10209843ffb42c6cafaa4a56f0c09a0fd77ed7c6199015934edf6b0ecd296fc584610a73565b6101c085015192506000805160206115288339815191528060c087015161032087015109840892506000805160206115288339815191528060e08701516102608701510984089250600080516020611528833981519152806101008701516102808701510984089250600080516020611528833981519152806101208701516102a08701510984089250600080516020611528833981519152806101408701516102c08701510984089250600080516020611528833981519152806101608701516102e087015109840892506000805160206115288339815191528061018087015161030087015109840860008051602061152883398151915290810306925061127c836002600184610a73565b60608501519250611292836101e0860183610a04565b60008051602061152883398151915260608601516101808701510992506000805160206115288339815191527eeeb2cb5981ed45649abebde081dcff16c8601de4347e7dd1628ba2daac43b784099250610ad783610220860183610a04565b60006040516101e0830151815260206101e08401015160208201527f26186a2d65ee4d2f9c9a5b91f86597d35f192cd120caf7e935d8443d1938e23d60408201527f30441fd1b5d3370482c42152a8899027716989a6996c2535bc9f7fee8aaef79e60608201527f1970ea81dd6992adfbc571effb03503adbbb6a857f578403c6c40e22d65b3c0260808201527f054793348f12c0cf5622c340573cb277586319de359ab9389778f689786b1e4860a082015261022083015160c08201526020610220840101517f30644e72e131a029b85045b68181585d97816a916871ca8d3c208c16d87cfd47817f30644e72e131a029b85045b68181585d97816a916871ca8d3c208c16d87cfd47030690508060e0830152507f198e9393920d483a7260bfb731fb5d25f1aa493335a9e71297e485b7aef312c26101008201527f1800deef121f1e76426a00665e5c4479674322d4f75edadd46debd5cd992f6ed6101208201527f090689d0585ff075ec9e99ad690c3395bc4b313370b38ef355acdadcd122975b6101408201527f12c85ea5db8c6deb4aab71808dcb408fe3d1e7690c43d37b4ce6cc0166fa7daa6101608201526020816101808360086107d05a03fa90511692915050565b6040516102e081016040526114ce846102a9565b6114d983828661031f565b6114e28161064c565b6114ec8382610775565b6114f681856107e5565b6115008185610b12565b61150a8185610b39565b611513816112f1565b6102e0820360405280600052505060206000f3fe30644e72e131a029b85045b68181585d2833e84879b9709143e1f593f0000001a2646970667358221220d19f3d9e14753fe38aeceb244b86479fbdd62e007dac1f0250e0a6329505472464736f6c63430007060033",
    "linkReferences": {}
  },
  "methodIdentifiers": {
    "verifyProof(bytes,uint256[])": "1e8e1e13"
  },
  "id": 10
}