{
  "abi": [
    {
      "inputs": [
        {
          "internalType": "uint32",
          "name": "levels",
          "type": "uint32"
        },
        {
          "internalType": "contract IHasher",
          "name": "hasher",
          "type": "address"
        },
        {
          "internalType": "uint256",
          "name": "_expiry",
          "type": "uint256"
        }
      ],
      "stateMutability": "nonpayable",
      "type": "constructor"
    },
    {
      "inputs": [],
      "name": "FIELD_SIZE",
      "outputs": [
        {
          "internalType": "uint256",
          "name": "",
          "type": "uint256"
        }
      ],
      "stateMutability": "view",
      "type": "function"
    },
    {
      "inputs": [],
      "name": "ROOT_HISTORY_SIZE",
      "outputs": [
        {
          "internalType": "uint32",
          "name": "",
          "type": "uint32"
        }
      ],
      "stateMutability": "view",
      "type": "function"
    },
    {
      "inputs": [],
      "name": "ZERO_VALUE",
      "outputs": [
        {
          "internalType": "uint256",
          "name": "",
          "type": "uint256"
        }
      ],
      "stateMutability": "view",
      "type": "function"
    },
    {
      "inputs": [],
      "name": "currentRootIndex",
      "outputs": [
        {
          "internalType": "uint32",
          "name": "",
          "type": "uint32"
        }
      ],
      "stateMutability": "view",
      "type": "function"
    },
    {
      "inputs": [],
      "name": "deposit",
      "outputs": [],
      "stateMutability": "payable",
      "type": "function"
    },
    {
      "inputs": [
        {
          "internalType": "uint256",
          "name": "",
          "type": "uint256"
        }
      ],
      "name": "filledSubtrees",
      "outputs": [
        {
          "internalType": "bytes32",
          "name": "",
          "type": "bytes32"
        }
      ],
      "stateMutability": "view",
      "type": "function"
    },
    {
      "inputs": [],
      "name": "getLastRoot",
      "outputs": [
        {
          "internalType": "bytes32",
          "name": "",
          "type": "bytes32"
        }
      ],
      "stateMutability": "view",
      "type": "function"
    },
    {
      "inputs": [
        {
          "internalType": "contract IHasher",
          "name": "_hasher",
          "type": "address"
        },
        {
          "internalType": "bytes32",
          "name": "_left",
          "type": "bytes32"
        },
        {
          "internalType": "bytes32",
          "name": "_right",
          "type": "bytes32"
        }
      ],
      "name": "hashLeftRight",
      "outputs": [
        {
          "internalType": "bytes32",
          "name": "",
          "type": "bytes32"
        }
      ],
      "stateMutability": "pure",
      "type": "function"
    },
    {
      "inputs": [],
      "name": "hasher",
      "outputs": [
        {
          "internalType": "contract IHasher",
          "name": "",
          "type": "address"
        }
      ],
      "stateMutability": "view",
      "type": "function"
    },
    {
      "inputs": [
        {
          "internalType": "bytes32",
          "name": "_root",
          "type": "bytes32"
        }
      ],
      "name": "isKnownRoot",
      "outputs": [
        {
          "internalType": "bool",
          "name": "",
          "type": "bool"
        }
      ],
      "stateMutability": "view",
      "type": "function"
    },
    {
      "inputs": [],
      "name": "levels",
      "outputs": [
        {
          "internalType": "uint32",
          "name": "",
          "type": "uint32"
        }
      ],
      "stateMutability": "view",
      "type": "function"
    },
    {
      "inputs": [],
      "name": "nextIndex",
      "outputs": [
        {
          "internalType": "uint32",
          "name": "",
          "type": "uint32"
        }
      ],
      "stateMutability": "view",
      "type": "function"
    },
    {
      "inputs": [
        {
          "internalType": "bytes32",
          "name": "state",
          "type": "bytes32"
        },
        {
          "internalType": "bytes",
          "name": "proof",
          "type": "bytes"
        }
      ],
      "name": "resolve",
      "outputs": [],
      "stateMutability": "nonpayable",
      "type": "function"
    },
    {
      "inputs": [
        {
          "internalType": "uint256",
          "name": "",
          "type": "uint256"
        }
      ],
      "name": "roots",
      "outputs": [
        {
          "internalType": "bytes32",
          "name": "",
          "type": "bytes32"
        }
      ],
      "stateMutability": "view",
      "type": "function"
    },
    {
      "inputs": [
        {
          "internalType": "address",
          "name": "account",
          "type": "address"
        },
        {
          "internalType": "uint256",
          "name": "value",
          "type": "uint256"
        },
        {
          "internalType": "bytes32[]",
          "name": "pathElements",
          "type": "bytes32[]"
        },
        {
          "internalType": "bool[]",
          "name": "pathIndices",
          "type": "bool[]"
        }
      ],
      "name": "withdraw",
      "outputs": [],
      "stateMutability": "nonpayable",
      "type": "function"
    },
    {
      "inputs": [
        {
          "internalType": "uint256",
          "name": "i",
          "type": "uint256"
        }
      ],
      "name": "zeros",
      "outputs": [
        {
          "internalType": "bytes32",
          "name": "",
          "type": "bytes32"
        }
      ],
      "stateMutability": "pure",
      "type": "function"
    }
  ],
  "bytecode": {
    "object": "0x60a0604052600380546001600160401b03191690553480156200002157600080fd5b506040516200348d3803806200348d8339810160408190526200004491620008a1565b828260008263ffffffff16116200008d5760405162461bcd60e51b81526004018080602001828103825260238152602001806200346a6023913960400191505060405180910390fd5b60208263ffffffff1610620000e9576040805162461bcd60e51b815260206004820152601e60248201527f5f6c6576656c732073686f756c64206265206c657373207468616e2033320000604482015290519081900360640190fd5b6000805463ffffffff191663ffffffff8416178155606082901b6001600160601b0319166080525b8263ffffffff168163ffffffff1610156200015a576200013763ffffffff821662000205565b63ffffffff82166000908152600160208190526040909120919091550162000111565b506200017063ffffffff60001984011662000205565b6000805260026020527fac33ff75c19e70fe83507db0d683fd3465c996598dc972688b7ace676c89077b555050604051620001ab9062000893565b604051809103906000f080158015620001c8573d6000803e3d6000fd5b50600380546001600160a01b03929092166801000000000000000002600160401b600160e01b031990921691909117905560055550620008f99050565b6000816200023557507f2fe54c60d3acabf3343a35b6eba15db4821b340f76e741e2249685ed4899af6c6200088e565b81600114156200026757507f256a6135777eee2fd26f54b8b7037a25439d5235caee224154186d2b8a52e31d6200088e565b81600214156200029957507f1151949895e82ab19924de92c40a3d6f7bcb60d92b00504b8199613683f0c2006200088e565b8160031415620002cb57507f20121ee811489ff8d61f09fb89e313f14959a0f28bb428a20dba6b0b068b3bdb6200088e565b8160041415620002fd57507f0a89ca6ffa14cc462cfedb842c30ed221a50a3d6bf022a6a57dc82ab24c157c96200088e565b81600514156200032f57507f24ca05c2b5cd42e890d6be94c68d0689f4f21c9cec9c0f13fe41d566dfb549596200088e565b81600614156200036157507f1ccb97c932565a92c60156bdba2d08f3bf1377464e025cee765679e604a7315c6200088e565b81600714156200039357507f19156fbd7d1a8bf5cba8909367de1b624534ebab4f0f79e003bccdd1b182bdb46200088e565b8160081415620003c557507f261af8c1f0912e465744641409f622d466c3920ac6e5ff37e36604cb11dfff806200088e565b8160091415620003f657507e58459724ff6ca5a1652fcbc3e82b93895cf08e975b19beab3f54c217d1c0076200088e565b81600a14156200042857507f1f04ef20dee48d39984d8eabe768a70eafa6310ad20849d4573c3c40c2ad1e306200088e565b81600b14156200045a57507f1bea3dec5dab51567ce7e200a30f7ba6d4276aeaa53e2686f962a46c66d511e56200088e565b81600c14156200048c57507f0ee0f941e2da4b9e31c3ca97a40d8fa9ce68d97c084177071b3cb46cd3372f0f6200088e565b81600d1415620004be57507f1ca9503e8935884501bbaf20be14eb4c46b89772c97b96e3b2ebf3a36a948bbd6200088e565b81600e1415620004f057507f133a80e30697cd55d8f7d4b0965b7be24057ba5dc3da898ee2187232446cb1086200088e565b81600f14156200052257507f13e6d8fc88839ed76e182c2a779af5b2c0da9dd18c90427a644f7e148a6253b66200088e565b81601014156200055457507f1eb16b057a477f4bc8f572ea6bee39561098f78f15bfb3699dcbb7bd8db618546200088e565b81601114156200058657507f0da2cb16a1ceaabf1c16b838f7a9e3f2a3a3088d9e0a6debaa748114620696ea6200088e565b8160121415620005b857507f24a3b3d822420b14b5d8cb6c28a574f01e98ea9e940551d2ebd75cee12649f9d6200088e565b8160131415620005ea57507f198622acbd783d1b0d9064105b1fc8e4d8889de95c4c519b3f635809fe6afc056200088e565b81601414156200061c57507f29d7ed391256ccc3ea596c86e933b89ff339d25ea8ddced975ae2fe30b5296d46200088e565b81601514156200064e57507f19be59f2f0413ce78c0c3703a3a5451b1d7f39629fa33abd11548a76065b29676200088e565b81601614156200068057507f1ff3f61797e538b70e619310d33f2a063e7eb59104e112e95738da1254dc34536200088e565b8160171415620006b257507f10c16ae9959cf8358980d9dd9616e48228737310a10e2b6b731c1a548f036c486200088e565b8160181415620006e457507f0ba433a63174a90ac20992e75e3095496812b652685b5e1a2eae0b1bf4e8fcd16200088e565b81601914156200071657507f019ddb9df2bc98d987d0dfeca9d2b643deafab8f7036562e627c3667266a044c6200088e565b81601a14156200074857507f2d3c88b23175c5a5565db928414c66d1912b11acf974b2e644caaac04739ce996200088e565b81601b14156200077a57507f2eab55f6ae4e66e32c5189eed5c470840863445760f5ed7e7b69b2a62600f3546200088e565b81601c1415620007ab57507e2df37a2642621802383cf952bf4dd1f32e05433beeb1fd41031fb7eace979d6200088e565b81601d1415620007dd57507f104aeb41435db66c3e62feccc1d6f5d98d0a0ed75d1374db457cf462e3a1f4276200088e565b81601e14156200080f57507f1f3c6fd858e9a7d4b0d1f38e256a09d81d5a5e3c963987e2d4b814cfab7c6ebb6200088e565b81601f14156200084157507f2c7a07d20dff79d01fecedc1134284a8d08436606c93693b67e333f671bf69cc6200088e565b6040805162461bcd60e51b815260206004820152601360248201527f496e646578206f7574206f6620626f756e647300000000000000000000000000604482015290519081900360640190fd5b919050565b61158a8062001ee083390190565b600080600060608486031215620008b6578283fd5b835163ffffffff81168114620008ca578384fd5b60208501519093506001600160a01b0381168114620008e7578283fd5b80925050604084015190509250925092565b60805160601c6115b56200092b6000398061058b52806107b15280610e4b5280610f21528061105052506115b56000f3fe6080604052600436106100f35760003560e01c8063ca48e9c31161008a578063ec73295911610059578063ec7329591461025b578063ed33639f14610270578063f178e47c14610292578063fc7e9c6f146102b2576100f3565b8063ca48e9c3146101fe578063cd87a3b41461021e578063d0e30db014610233578063e82955881461023b576100f3565b806390eeb02b116100c657806390eeb02b14610192578063ba70f757146101a7578063c2b40ae4146101bc578063c79c2c29146101dc576100f3565b8063414a37ba146100f85780634ecf518b146101235780636d9833e3146101455780638ea3099e14610172575b600080fd5b34801561010457600080fd5b5061010d6102c7565b60405161011a91906112d5565b60405180910390f35b34801561012f57600080fd5b506101386102d9565b60405161011a91906114d7565b34801561015157600080fd5b50610165610160366004611204565b6102e5565b60405161011a91906112ca565b34801561017e57600080fd5b5061010d61018d366004611293565b610357565b34801561019e57600080fd5b50610138610523565b3480156101b357600080fd5b5061010d61052f565b3480156101c857600080fd5b5061010d6101d7366004611204565b61054a565b3480156101e857600080fd5b506101fc6101f736600461113c565b61055c565b005b34801561020a57600080fd5b506101fc61021936600461121c565b61064f565b34801561022a57600080fd5b50610138610784565b6101fc610789565b34801561024757600080fd5b5061010d610256366004611204565b6107e6565b34801561026757600080fd5b5061010d610e25565b34801561027c57600080fd5b50610285610e49565b60405161011a9190611355565b34801561029e57600080fd5b5061010d6102ad366004611204565b610e6d565b3480156102be57600080fd5b50610138610e7f565b60008051602061153083398151915281565b60005463ffffffff1681565b6000816102f457506000610352565b60035463ffffffff16805b63ffffffff811660009081526002602052604090205484141561032757600192505050610352565b63ffffffff81166103365750601e5b6000190163ffffffff80821690831614156102ff576000925050505b919050565b600060008051602061153083398151915283106103bb576040805162461bcd60e51b815260206004820181905260248201527f5f6c6566742073686f756c6420626520696e7369646520746865206669656c64604482015290519081900360640190fd5b60008051602061153083398151915282106104075760405162461bcd60e51b815260040180806020018281038252602181526020018061150f6021913960400191505060405180910390fd5b6040805163f47d33b560e01b8152600481018590526000602482018190528251869391926001600160a01b0389169263f47d33b592604480840193829003018186803b15801561045657600080fd5b505afa15801561046a573d6000803e3d6000fd5b505050506040513d604081101561048057600080fd5b50805160209091015190925090506000805160206115308339815191528483089150856001600160a01b031663f47d33b583836040518363ffffffff1660e01b81526004018083815260200182815260200192505050604080518083038186803b1580156104ed57600080fd5b505afa158015610501573d6000803e3d6000fd5b505050506040513d604081101561051757600080fd5b50519695505050505050565b60035463ffffffff1681565b60035463ffffffff1660009081526002602052604090205490565b60026020526000908152604090205481565b6004546105845760405162461bcd60e51b815260040161057b90611369565b60405180910390fd5b60006105ba7f00000000000000000000000000000000000000000000000000000000000000006001600160a01b03891688610357565b90506105c98186868686610e93565b6000876001600160a01b0316876040516105e2906112c7565b60006040518083038185875af1925050503d806000811461061f576040519150601f19603f3d011682016040523d82523d6000602084013e610624565b606091505b50509050806106455760405162461bcd60e51b815260040161057b906114b2565b5050505050505050565b60055442116106705760405162461bcd60e51b815260040161057b9061139e565b60408051600280825260608201835260009260208301908036833701905050905061069961052f565b60001c816000815181106106a957fe5b6020026020010181815250508360001c816001815181106106c657fe5b6020908102919091010152600354604051631e8e1e1360e01b8152680100000000000000009091046001600160a01b031690631e8e1e1390610710908690869086906004016112de565b60206040518083038186803b15801561072857600080fd5b505afa15801561073c573d6000803e3d6000fd5b505050506040513d601f19601f8201168201806040525081019061076091906111e8565b61077c5760405162461bcd60e51b815260040161057b906113ed565b505050600455565b601e81565b60055442106107aa5760405162461bcd60e51b815260040161057b90611424565b60006107d77f00000000000000000000000000000000000000000000000000000000000000003334610357565b90506107e281610f7d565b5050565b60008161081457507f2fe54c60d3acabf3343a35b6eba15db4821b340f76e741e2249685ed4899af6c610352565b816001141561084457507f256a6135777eee2fd26f54b8b7037a25439d5235caee224154186d2b8a52e31d610352565b816002141561087457507f1151949895e82ab19924de92c40a3d6f7bcb60d92b00504b8199613683f0c200610352565b81600314156108a457507f20121ee811489ff8d61f09fb89e313f14959a0f28bb428a20dba6b0b068b3bdb610352565b81600414156108d457507f0a89ca6ffa14cc462cfedb842c30ed221a50a3d6bf022a6a57dc82ab24c157c9610352565b816005141561090457507f24ca05c2b5cd42e890d6be94c68d0689f4f21c9cec9c0f13fe41d566dfb54959610352565b816006141561093457507f1ccb97c932565a92c60156bdba2d08f3bf1377464e025cee765679e604a7315c610352565b816007141561096457507f19156fbd7d1a8bf5cba8909367de1b624534ebab4f0f79e003bccdd1b182bdb4610352565b816008141561099457507f261af8c1f0912e465744641409f622d466c3920ac6e5ff37e36604cb11dfff80610352565b81600914156109c357507e58459724ff6ca5a1652fcbc3e82b93895cf08e975b19beab3f54c217d1c007610352565b81600a14156109f357507f1f04ef20dee48d39984d8eabe768a70eafa6310ad20849d4573c3c40c2ad1e30610352565b81600b1415610a2357507f1bea3dec5dab51567ce7e200a30f7ba6d4276aeaa53e2686f962a46c66d511e5610352565b81600c1415610a5357507f0ee0f941e2da4b9e31c3ca97a40d8fa9ce68d97c084177071b3cb46cd3372f0f610352565b81600d1415610a8357507f1ca9503e8935884501bbaf20be14eb4c46b89772c97b96e3b2ebf3a36a948bbd610352565b81600e1415610ab357507f133a80e30697cd55d8f7d4b0965b7be24057ba5dc3da898ee2187232446cb108610352565b81600f1415610ae357507f13e6d8fc88839ed76e182c2a779af5b2c0da9dd18c90427a644f7e148a6253b6610352565b8160101415610b1357507f1eb16b057a477f4bc8f572ea6bee39561098f78f15bfb3699dcbb7bd8db61854610352565b8160111415610b4357507f0da2cb16a1ceaabf1c16b838f7a9e3f2a3a3088d9e0a6debaa748114620696ea610352565b8160121415610b7357507f24a3b3d822420b14b5d8cb6c28a574f01e98ea9e940551d2ebd75cee12649f9d610352565b8160131415610ba357507f198622acbd783d1b0d9064105b1fc8e4d8889de95c4c519b3f635809fe6afc05610352565b8160141415610bd357507f29d7ed391256ccc3ea596c86e933b89ff339d25ea8ddced975ae2fe30b5296d4610352565b8160151415610c0357507f19be59f2f0413ce78c0c3703a3a5451b1d7f39629fa33abd11548a76065b2967610352565b8160161415610c3357507f1ff3f61797e538b70e619310d33f2a063e7eb59104e112e95738da1254dc3453610352565b8160171415610c6357507f10c16ae9959cf8358980d9dd9616e48228737310a10e2b6b731c1a548f036c48610352565b8160181415610c9357507f0ba433a63174a90ac20992e75e3095496812b652685b5e1a2eae0b1bf4e8fcd1610352565b8160191415610cc357507f019ddb9df2bc98d987d0dfeca9d2b643deafab8f7036562e627c3667266a044c610352565b81601a1415610cf357507f2d3c88b23175c5a5565db928414c66d1912b11acf974b2e644caaac04739ce99610352565b81601b1415610d2357507f2eab55f6ae4e66e32c5189eed5c470840863445760f5ed7e7b69b2a62600f354610352565b81601c1415610d5257507e2df37a2642621802383cf952bf4dd1f32e05433beeb1fd41031fb7eace979d610352565b81601d1415610d8257507f104aeb41435db66c3e62feccc1d6f5d98d0a0ed75d1374db457cf462e3a1f427610352565b81601e1415610db257507f1f3c6fd858e9a7d4b0d1f38e256a09d81d5a5e3c963987e2d4b814cfab7c6ebb610352565b81601f1415610de257507f2c7a07d20dff79d01fecedc1134284a8d08436606c93693b67e333f671bf69cc610352565b6040805162461bcd60e51b8152602060048201526013602482015272496e646578206f7574206f6620626f756e647360681b604482015290519081900360640190fd5b7f2fe54c60d3acabf3343a35b6eba15db4821b340f76e741e2249685ed4899af6c81565b7f000000000000000000000000000000000000000000000000000000000000000081565b60016020526000908152604090205481565b600354640100000000900463ffffffff1681565b8460005b60005463ffffffff9081169082161015610f535760008085858463ffffffff16818110610ec057fe5b9050602002016020810190610ed591906111c5565b15610efd5787878463ffffffff16818110610eec57fe5b905060200201359150839050610f1c565b83915087878463ffffffff16818110610f1257fe5b9050602002013590505b610f477f00000000000000000000000000000000000000000000000000000000000000008383610357565b93505050600101610e97565b506004548114610f755760405162461bcd60e51b815260040161057b9061146f565b505050505050565b60035460008054909163ffffffff640100000000909104811691811660020a16811415610fdb5760405162461bcd60e51b81526004018080602001828103825260308152602001806115506030913960400191505060405180910390fd5b8083600080805b60005463ffffffff908116908216101561108c576001851661102f578392506110108163ffffffff166107e6565b63ffffffff82166000908152600160205260409020859055915061104b565b63ffffffff811660009081526001602052604090205492508391505b6110767f00000000000000000000000000000000000000000000000000000000000000008484610357565b9350600263ffffffff8616049450600101610fe2565b505060038054601e63ffffffff8083166001908101821692909206811663ffffffff1990931683178455600092835260026020526040909220949094558154938601166401000000000267ffffffff00000000199093169290921790915550909392505050565b60008083601f840112611104578182fd5b50813567ffffffffffffffff81111561111b578182fd5b602083019150836020808302850101111561113557600080fd5b9250929050565b60008060008060008060808789031215611154578182fd5b863561115f816114e8565b955060208701359450604087013567ffffffffffffffff80821115611182578384fd5b61118e8a838b016110f3565b909650945060608901359150808211156111a6578384fd5b506111b389828a016110f3565b979a9699509497509295939492505050565b6000602082840312156111d6578081fd5b81356111e181611500565b9392505050565b6000602082840312156111f9578081fd5b81516111e181611500565b600060208284031215611215578081fd5b5035919050565b600080600060408486031215611230578283fd5b83359250602084013567ffffffffffffffff8082111561124e578384fd5b818601915086601f830112611261578384fd5b81358181111561126f578485fd5b876020828501011115611280578485fd5b6020830194508093505050509250925092565b6000806000606084860312156112a7578283fd5b83356112b2816114e8565b95602085013595506040909401359392505050565b90565b901515815260200190565b90815260200190565b600060408252836040830152838560608401378060608584010152601f19601f85011682016060810160206060858403018186015281865180845260808501915082880194508593505b808410156113485784518252938201936001939093019290820190611328565b5098975050505050505050565b6001600160a01b0391909116815260200190565b6020808252818101527f54686520726f6c6c757020686173206e6f74206265656e207265736f6c766564604082015260600190565b6020808252602f908201527f54686520726f6c6c757020686173206e6f7420656e746572656420746865207260408201526e65736f6c7574696f6e20737461676560881b606082015260800190565b60208082526019908201527f50726f6f6620766572696669636174696f6e206661696c656400000000000000604082015260600190565b6020808252602b908201527f54686520726f6c6c75702068617320656e746572656420746865207265736f6c60408201526a7574696f6e20737461676560a81b606082015260800190565b60208082526023908201527f50726f766964656420726f6f7420646f6573206e6f74206d61746368207265736040820152621d5b1d60ea1b606082015260800190565b6020808252600b908201526a14d95b990819985a5b195960aa1b604082015260600190565b63ffffffff91909116815260200190565b6001600160a01b03811681146114fd57600080fd5b50565b80151581146114fd57600080fdfe5f72696768742073686f756c6420626520696e7369646520746865206669656c6430644e72e131a029b85045b68181585d2833e84879b9709143e1f593f00000014d65726b6c6520747265652069732066756c6c2e204e6f206d6f7265206c65617665732063616e206265206164646564a26469706673582212208386f71e7333cec0e7645e93971540d115cc6362bbf2763bc41e9a45c1402d5664736f6c63430007060033608060405234801561001057600080fd5b5061156a806100206000396000f3fe608060405234801561001057600080fd5b506004361061002b5760003560e01c80631e8e1e1314610030575b600080fd5b61015a6004803603604081101561004657600080fd5b81019060208101813564010000000081111561006157600080fd5b82018360208201111561007357600080fd5b8035906020019184600183028401116401000000008311171561009557600080fd5b91908080601f01602080910402602001604051908101604052809392919081815260200183838082843760009201919091525092959493602081019350359150506401000000008111156100e857600080fd5b8201836020820111156100fa57600080fd5b8035906020019184602083028401116401000000008311171561011c57600080fd5b91908080602002602001604051908101604052809392919081815260200183836020028082843760009201919091525092955061016e945050505050565b604080519115158252519081900360200190f35b60006114a7565b600080600184846000805b82156101a2575092938183058581029091039350909181830290039081610180565b50505060018111156101b357600080fd5b505060008112156101c15783015b9392505050565b60405181602084028301815160208301925060005b8284101561020e578185526000805160206115158339815191528451830991506020850194506020840193506101dd565b61022660008051602061151583398151915283610175565b91506020850394506020840393508592505b8284111561027d5760008051602061151583398151915285518309905060008051602061151583398151915284518309818552601f1995860195909401939150610238565b5090915250505050565b60008051602061151583398151915281106102a6576000805260206000f35b50565b6103208151146102bd576000805260206000f35b6102cb610260820151610287565b6102d9610280820151610287565b6102e76102a0820151610287565b6102f56102c0820151610287565b6103036102e0820151610287565b610311610300820151610287565b6102a6610320820151610287565b60008060208501516102e085015260408501516103008501526020830151610320850152602080018301516103408501526040602001830151610360850152606060200183015161038085015260806020018301516103a085015260a06020018301516103c08501526000805160206115158339815191526101006102e0860120069050806020850152600080516020611515833981519152602080860120066040850152600080516020611515833981519152604060e085012006600085015260008051602061151583398151915260c061012085012006915081606085015260008051602061151583398151915282820960a085015250600080516020611515833981519152818209905060008051602061151583398151915281820990506000805160206115158339815191528182099050600080516020611515833981519152818209905060008051602061151583398151915281820990506000805160206115158339815191528182099050600080516020611515833981519152818209905060008051602061151583398151915281820990506000805160206115158339815191528182099050600080516020611515833981519152818209905060008051602061151583398151915281820990506000805160206115158339815191528182099050600080516020611515833981519152818209905060008051602061151583398151915281820990506000805160206115158339815191528182099050806080840152600080516020611515833981519152806001830301069050806102608401528061028084015260008051602061151583398151915260e0610260840120068060c085015260008051602061151583398151915281820991508160e0850152600080516020611515833981519152818309915081610100850152600080516020611515833981519152818309915081610120850152600080516020611515833981519152818309915081610140850152600080516020611515833981519152818309610160850152505060806101e0919091012060008051602061151583398151915290066101809091015250565b600160008051602061151583398151915280600080516020611515833981519152836060860151030106618000096102a08301526000805160206115158339815191527f2d1ba66f5941dc91017171fa69ec2bd0022a2a2d4115a009a93458fd4e26ecfb8209905060008051602061151583398151915280600080516020611515833981519152836060860151030106618000096102c08301526106e1600361028084016101c8565b61026082015160019150600080516020611515833981519152816102a0850151096102a08401526000805160206115158339815191527f2d1ba66f5941dc91017171fa69ec2bd0022a2a2d4115a009a93458fd4e26ecfb8309915060008051602061151583398151915280826102c08601510983096102c0840152505050565b60006000805160206115158339815191528060008051602061151583398151915260208601516102a0860151098303010690506000805160206115158339815191528060008051602061151583398151915260408601516102c086015109830301069050806101a0830152505050565b60008060006000805160206115158339815191526101a086015161032086015108925060008051602061151583398151915260208601516102c08601510991506000805160206115158339815191526102608501518308915060008051602061151583398151915260408601518308915060008051602061151583398151915260208601516102e086015109905060008051602061151583398151915261028085015182089050600080516020611515833981519152604086015182089050600080516020611515833981519152818309915060008051602061151583398151915260408601516102a086015108905060008051602061151583398151915281830991506000805160206115158339815191526103008501518309915060008051602061151583398151915260008601518309915060008051602061151583398151915260008601516102a0870151099050600080516020611515833981519152600086015182099050600080516020611515833981519152818308915050600080516020611515833981519152816000805160206115158339815191528401030691505060008051602061151583398151915261028084015182099050806101c0840152505050565b81518152602091820151910152565b6040518151815260208201516020820152825160408201526020830151606082015260408260808360066107d05a03fa9050806109eb576000805260206000f35b505050565b6000604051835181526020840151602082015284604082015260408160608360076107d05a03fa915081610a28576000805260206000f35b825160408201526020830151606082015260408360808360066107d05a03fa91505080610a59576000805260206000f35b50505050565b600060405183815284602082015285604082015260408160608360076107d05a03fa915081610a92576000805260206000f35b825160408201526020830151606082015260408360808360066107d05a03fa91505080610ac3576000805260206000f35b5050505050565b600060405183815284602082015285604082015260408360608360076107d05a03fa91505080610ac3576000805260206000f35b6101e08201610b116101e083018261099b565b6109eb6101808401516102208401836109f0565b600080610220840160008051602061151583398151915260c0860151610260860151099250610b96837f0b92a79d904486e03eb779a9380c4b5d597eb7cb093fc860d66e685120e3de097f08111c2360af03de2b10087e2a1d3aac69b55e0d407b001c0b4f86d4fe4cf15e84610aca565b60008051602061151583398151915261028085015184099250610bfb837f203ad70dc76e221cd91f8da937222ad89ecb39ce151d5d55d93605ff3f1b18d07f2a2975e785da47400d81f09d81429fe5e0a79087f285af827d6c683f716d7b4f84610a5f565b60008051602061151583398151915260c0860151610280860151099250610c64837f019592a587fbf0cc565bcefacfddc900ca9f3cb6cac6759d57211c5d52fe7a037f054e47aa0b19c3c009b3987d198357568335819aefc9ec6f5f683bc111a888c684610a5f565b60008051602061151583398151915260c08601516102a0860151099250610ccd837f1d3dbc59761c40588f67727bd6fe672537dbc14edac8cec81f7f1f617684e6c77f1e0aa6a681440ec0b2f6fbb985cee1c55e141358eaebd98060491e1a3245331384610a5f565b60c08501519250610d20837f2fa500715e5bedf717e6205b601035ef83f9f3df44925152691b89cd1be54ab07f211f49a5e7299a428190410b3fc2a4357578c6d0c0710fec78b80441b084722884610a5f565b60008051602061151583398151915260a086015161026086015108925060008051602061151583398151915260408601518408925060008051602061151583398151915260a0860151600209915060008051602061151583398151915261028085015183089150600080516020611515833981519152604086015183089150600080516020611515833981519152828409925060008051602061151583398151915260a086015160030991506000805160206115158339815191526102a085015183089150600080516020611515833981519152604086015183089150600080516020611515833981519152828409925060008051602061151583398151915260008601518409925060008051602061151583398151915260c08601518409925060008051602061151583398151915260008601516102a087015109915060008051602061151583398151915260008601518309915060008051602061151583398151915260c086015183099150600080516020611515833981519152828408925060008051602061151583398151915261018086015184089250610ec98360e08601836109f0565b6000805160206115158339815191526102c08501516020870151099250600080516020611515833981519152610260850151840892506000805160206115158339815191526040860151840892506000805160206115158339815191526102e0850151602087015109915060008051602061151583398151915261028085015183089150600080516020611515833981519152604086015183089150600080516020611515833981519152828409925060008051602061151583398151915260008601518409925060008051602061151583398151915260c0860151840992506000805160206115158339815191526020860151840992506000805160206115158339815191526103008501518409600080516020611515833981519152908103069250611039837f2752d0e19876b31a859c78a7acc11a8f4b534a5b521a14cf2aab7f6e8bdd6fe57f091f830b9c52b22d2c580a0e3d1dcab915e30c46cc95d5e58e8d4d4263736cff84610a5f565b6110476101208501826109aa565b6080850151925061105d836101608601836109f0565b6000805160206115158339815191528384099250611080836101a08601836109f0565b61109260e086015160208601836109f0565b6110a561010086015160608601836109f0565b6110b861012086015160a08601836109f0565b6111096101408601517f225f6ea8cc80525c716b133f00dbb2ce4584769c3f2f9fcb2a3ffe1da936bc9f7f03b687dbb019cea7b81c9f6237401d651b527ce1537472a4f106238b9b400d8784610a5f565b61115a6101608601517f1dcaaaeebe01252dfe22897256206f962fefb1a39f138729fb6ddfe69f5af4997f2cf398c3f1541b9afc3f52d6ae368b3cdae665fcad2326446fa3f16714b8692284610a5f565b6101c085015192506000805160206115158339815191528060c087015161032087015109840892506000805160206115158339815191528060e08701516102608701510984089250600080516020611515833981519152806101008701516102808701510984089250600080516020611515833981519152806101208701516102a08701510984089250600080516020611515833981519152806101408701516102c08701510984089250600080516020611515833981519152806101608701516102e0870151098408925060008051602061151583398151915280610180870151610300870151098408600080516020611515833981519152908103069250611268836002600184610a5f565b6060850151925061127e836101e08601836109f0565b60008051602061151583398151915260608601516101808701510992506000805160206115158339815191527f2d1ba66f5941dc91017171fa69ec2bd0022a2a2d4115a009a93458fd4e26ecfb84099250610ac3836102208601836109f0565b60006040516101e0830151815260206101e08401015160208201527f26186a2d65ee4d2f9c9a5b91f86597d35f192cd120caf7e935d8443d1938e23d60408201527f30441fd1b5d3370482c42152a8899027716989a6996c2535bc9f7fee8aaef79e60608201527f1970ea81dd6992adfbc571effb03503adbbb6a857f578403c6c40e22d65b3c0260808201527f054793348f12c0cf5622c340573cb277586319de359ab9389778f689786b1e4860a082015261022083015160c08201526020610220840101517f30644e72e131a029b85045b68181585d97816a916871ca8d3c208c16d87cfd47817f30644e72e131a029b85045b68181585d97816a916871ca8d3c208c16d87cfd47030690508060e0830152507f198e9393920d483a7260bfb731fb5d25f1aa493335a9e71297e485b7aef312c26101008201527f1800deef121f1e76426a00665e5c4479674322d4f75edadd46debd5cd992f6ed6101208201527f090689d0585ff075ec9e99ad690c3395bc4b313370b38ef355acdadcd122975b6101408201527f12c85ea5db8c6deb4aab71808dcb408fe3d1e7690c43d37b4ce6cc0166fa7daa6101608201526020816101808360086107d05a03fa90511692915050565b6040516102e081016040526114bb846102a9565b6114c683828661031f565b6114cf81610638565b6114d98382610761565b6114e381856107d1565b6114ed8185610afe565b6114f78185610b25565b611500816112de565b6102e0820360405280600052505060206000f3fe30644e72e131a029b85045b68181585d2833e84879b9709143e1f593f0000001a2646970667358221220172815f5f70b73f43d14a73673c27517c117c47271cd397d30ba94d0beb7133864736f6c634300070600335f6c6576656c732073686f756c642062652067726561746572207468616e207a65726f",
    "linkReferences": {}
  },
  "methodIdentifiers": {
    "FIELD_SIZE()": "414a37ba",
    "ROOT_HISTORY_SIZE()": "cd87a3b4",
    "ZERO_VALUE()": "ec732959",
    "currentRootIndex()": "90eeb02b",
    "deposit()": "d0e30db0",
    "filledSubtrees(uint256)": "f178e47c",
    "getLastRoot()": "ba70f757",
    "hashLeftRight(address,bytes32,bytes32)": "8ea3099e",
    "hasher()": "ed33639f",
    "isKnownRoot(bytes32)": "6d9833e3",
    "levels()": "4ecf518b",
    "nextIndex()": "fc7e9c6f",
    "resolve(bytes32,bytes)": "ca48e9c3",
    "roots(uint256)": "c2b40ae4",
    "withdraw(address,uint256,bytes32[],bool[])": "c79c2c29",
    "zeros(uint256)": "e8295588"
  },
  "id": 10
}