{
  "abi": [
    {
      "inputs": [
        {
          "internalType": "uint256",
          "name": "_expiry",
          "type": "uint256"
        },
        {
          "internalType": "uint32",
          "name": "levels",
          "type": "uint32"
        },
        {
          "internalType": "contract IHasher",
          "name": "hasher",
          "type": "address"
        }
      ],
      "stateMutability": "nonpayable",
      "type": "constructor"
    },
    {
      "anonymous": false,
      "inputs": [
        {
          "indexed": false,
          "internalType": "address",
          "name": "to",
          "type": "address"
        },
        {
          "indexed": false,
          "internalType": "uint256",
          "name": "value",
          "type": "uint256"
        }
      ],
      "name": "Deposit",
      "type": "event"
    },
    {
      "anonymous": false,
      "inputs": [],
      "name": "Resolve",
      "type": "event"
    },
    {
      "anonymous": false,
      "inputs": [
        {
          "indexed": false,
          "internalType": "address",
          "name": "from",
          "type": "address"
        },
        {
          "indexed": false,
          "internalType": "bytes32",
          "name": "to",
          "type": "bytes32"
        },
        {
          "indexed": false,
          "internalType": "bytes32",
          "name": "value",
          "type": "bytes32"
        }
      ],
      "name": "Transfer",
      "type": "event"
    },
    {
      "anonymous": false,
      "inputs": [
        {
          "indexed": false,
          "internalType": "address",
          "name": "from",
          "type": "address"
        },
        {
          "indexed": false,
          "internalType": "uint256",
          "name": "value",
          "type": "uint256"
        }
      ],
      "name": "Withdraw",
      "type": "event"
    },
    {
      "inputs": [],
      "name": "FIELD_SIZE",
      "outputs": [
        {
          "internalType": "uint256",
          "name": "",
          "type": "uint256"
        }
      ],
      "stateMutability": "view",
      "type": "function"
    },
    {
      "inputs": [],
      "name": "ROOT_HISTORY_SIZE",
      "outputs": [
        {
          "internalType": "uint32",
          "name": "",
          "type": "uint32"
        }
      ],
      "stateMutability": "view",
      "type": "function"
    },
    {
      "inputs": [],
      "name": "ZERO_VALUE",
      "outputs": [
        {
          "internalType": "uint256",
          "name": "",
          "type": "uint256"
        }
      ],
      "stateMutability": "view",
      "type": "function"
    },
    {
      "inputs": [],
      "name": "currentRootIndex",
      "outputs": [
        {
          "internalType": "uint32",
          "name": "",
          "type": "uint32"
        }
      ],
      "stateMutability": "view",
      "type": "function"
    },
    {
      "inputs": [],
      "name": "deposit",
      "outputs": [],
      "stateMutability": "payable",
      "type": "function"
    },
    {
      "inputs": [
        {
          "internalType": "uint256",
          "name": "",
          "type": "uint256"
        }
      ],
      "name": "filledSubtrees",
      "outputs": [
        {
          "internalType": "bytes32",
          "name": "",
          "type": "bytes32"
        }
      ],
      "stateMutability": "view",
      "type": "function"
    },
    {
      "inputs": [],
      "name": "getLastRoot",
      "outputs": [
        {
          "internalType": "bytes32",
          "name": "",
          "type": "bytes32"
        }
      ],
      "stateMutability": "view",
      "type": "function"
    },
    {
      "inputs": [
        {
          "internalType": "contract IHasher",
          "name": "_hasher",
          "type": "address"
        },
        {
          "internalType": "bytes32",
          "name": "_left",
          "type": "bytes32"
        },
        {
          "internalType": "bytes32",
          "name": "_right",
          "type": "bytes32"
        }
      ],
      "name": "hashLeftRight",
      "outputs": [
        {
          "internalType": "bytes32",
          "name": "",
          "type": "bytes32"
        }
      ],
      "stateMutability": "pure",
      "type": "function"
    },
    {
      "inputs": [
        {
          "internalType": "contract IHasher",
          "name": "hasher",
          "type": "address"
        },
        {
          "internalType": "bytes32",
          "name": "one",
          "type": "bytes32"
        },
        {
          "internalType": "bytes32",
          "name": "two",
          "type": "bytes32"
        },
        {
          "internalType": "bytes32",
          "name": "three",
          "type": "bytes32"
        }
      ],
      "name": "hashThree",
      "outputs": [
        {
          "internalType": "bytes32",
          "name": "",
          "type": "bytes32"
        }
      ],
      "stateMutability": "pure",
      "type": "function"
    },
    {
      "inputs": [],
      "name": "hasher",
      "outputs": [
        {
          "internalType": "contract IHasher",
          "name": "",
          "type": "address"
        }
      ],
      "stateMutability": "view",
      "type": "function"
    },
    {
      "inputs": [
        {
          "internalType": "bytes32",
          "name": "_root",
          "type": "bytes32"
        }
      ],
      "name": "isKnownRoot",
      "outputs": [
        {
          "internalType": "bool",
          "name": "",
          "type": "bool"
        }
      ],
      "stateMutability": "view",
      "type": "function"
    },
    {
      "inputs": [],
      "name": "levels",
      "outputs": [
        {
          "internalType": "uint32",
          "name": "",
          "type": "uint32"
        }
      ],
      "stateMutability": "view",
      "type": "function"
    },
    {
      "inputs": [],
      "name": "nextIndex",
      "outputs": [
        {
          "internalType": "uint32",
          "name": "",
          "type": "uint32"
        }
      ],
      "stateMutability": "view",
      "type": "function"
    },
    {
      "inputs": [
        {
          "internalType": "bytes32",
          "name": "state",
          "type": "bytes32"
        },
        {
          "internalType": "bytes",
          "name": "proof",
          "type": "bytes"
        }
      ],
      "name": "resolve",
      "outputs": [],
      "stateMutability": "nonpayable",
      "type": "function"
    },
    {
      "inputs": [
        {
          "internalType": "uint256",
          "name": "",
          "type": "uint256"
        }
      ],
      "name": "roots",
      "outputs": [
        {
          "internalType": "bytes32",
          "name": "",
          "type": "bytes32"
        }
      ],
      "stateMutability": "view",
      "type": "function"
    },
    {
      "inputs": [
        {
          "internalType": "bytes32",
          "name": "to",
          "type": "bytes32"
        },
        {
          "internalType": "bytes32",
          "name": "value",
          "type": "bytes32"
        }
      ],
      "name": "transfer",
      "outputs": [],
      "stateMutability": "payable",
      "type": "function"
    },
    {
      "inputs": [
        {
          "internalType": "address",
          "name": "account",
          "type": "address"
        },
        {
          "internalType": "uint256",
          "name": "value",
          "type": "uint256"
        },
        {
          "internalType": "bytes32[]",
          "name": "pathElements",
          "type": "bytes32[]"
        },
        {
          "internalType": "bool[]",
          "name": "pathIndices",
          "type": "bool[]"
        }
      ],
      "name": "withdraw",
      "outputs": [],
      "stateMutability": "nonpayable",
      "type": "function"
    },
    {
      "inputs": [
        {
          "internalType": "uint256",
          "name": "i",
          "type": "uint256"
        }
      ],
      "name": "zeros",
      "outputs": [
        {
          "internalType": "bytes32",
          "name": "",
          "type": "bytes32"
        }
      ],
      "stateMutability": "pure",
      "type": "function"
    }
  ],
  "bytecode": {
    "object": "0x60a0604052600380546001600160401b03191690553480156200002157600080fd5b506040516200361a3803806200361a8339810160408190526200004491620008a0565b818160008263ffffffff16116200008d5760405162461bcd60e51b8152600401808060200182810382526023815260200180620035f76023913960400191505060405180910390fd5b60208263ffffffff1610620000e9576040805162461bcd60e51b815260206004820152601e60248201527f5f6c6576656c732073686f756c64206265206c657373207468616e2033320000604482015290519081900360640190fd5b6000805463ffffffff191663ffffffff8416178155606082901b6001600160601b0319166080525b8263ffffffff168163ffffffff1610156200015a576200013763ffffffff821662000204565b63ffffffff82166000908152600160208190526040909120919091550162000111565b506200017063ffffffff60001984011662000204565b6000805260026020527fac33ff75c19e70fe83507db0d683fd3465c996598dc972688b7ace676c89077b555050604051620001ab9062000892565b604051809103906000f080158015620001c8573d6000803e3d6000fd5b50600380546001600160a01b03929092166801000000000000000002600160401b600160e01b03199092169190911790555050600755620008f8565b6000816200023457507f2fe54c60d3acabf3343a35b6eba15db4821b340f76e741e2249685ed4899af6c6200088d565b81600114156200026657507f256a6135777eee2fd26f54b8b7037a25439d5235caee224154186d2b8a52e31d6200088d565b81600214156200029857507f1151949895e82ab19924de92c40a3d6f7bcb60d92b00504b8199613683f0c2006200088d565b8160031415620002ca57507f20121ee811489ff8d61f09fb89e313f14959a0f28bb428a20dba6b0b068b3bdb6200088d565b8160041415620002fc57507f0a89ca6ffa14cc462cfedb842c30ed221a50a3d6bf022a6a57dc82ab24c157c96200088d565b81600514156200032e57507f24ca05c2b5cd42e890d6be94c68d0689f4f21c9cec9c0f13fe41d566dfb549596200088d565b81600614156200036057507f1ccb97c932565a92c60156bdba2d08f3bf1377464e025cee765679e604a7315c6200088d565b81600714156200039257507f19156fbd7d1a8bf5cba8909367de1b624534ebab4f0f79e003bccdd1b182bdb46200088d565b8160081415620003c457507f261af8c1f0912e465744641409f622d466c3920ac6e5ff37e36604cb11dfff806200088d565b8160091415620003f557507e58459724ff6ca5a1652fcbc3e82b93895cf08e975b19beab3f54c217d1c0076200088d565b81600a14156200042757507f1f04ef20dee48d39984d8eabe768a70eafa6310ad20849d4573c3c40c2ad1e306200088d565b81600b14156200045957507f1bea3dec5dab51567ce7e200a30f7ba6d4276aeaa53e2686f962a46c66d511e56200088d565b81600c14156200048b57507f0ee0f941e2da4b9e31c3ca97a40d8fa9ce68d97c084177071b3cb46cd3372f0f6200088d565b81600d1415620004bd57507f1ca9503e8935884501bbaf20be14eb4c46b89772c97b96e3b2ebf3a36a948bbd6200088d565b81600e1415620004ef57507f133a80e30697cd55d8f7d4b0965b7be24057ba5dc3da898ee2187232446cb1086200088d565b81600f14156200052157507f13e6d8fc88839ed76e182c2a779af5b2c0da9dd18c90427a644f7e148a6253b66200088d565b81601014156200055357507f1eb16b057a477f4bc8f572ea6bee39561098f78f15bfb3699dcbb7bd8db618546200088d565b81601114156200058557507f0da2cb16a1ceaabf1c16b838f7a9e3f2a3a3088d9e0a6debaa748114620696ea6200088d565b8160121415620005b757507f24a3b3d822420b14b5d8cb6c28a574f01e98ea9e940551d2ebd75cee12649f9d6200088d565b8160131415620005e957507f198622acbd783d1b0d9064105b1fc8e4d8889de95c4c519b3f635809fe6afc056200088d565b81601414156200061b57507f29d7ed391256ccc3ea596c86e933b89ff339d25ea8ddced975ae2fe30b5296d46200088d565b81601514156200064d57507f19be59f2f0413ce78c0c3703a3a5451b1d7f39629fa33abd11548a76065b29676200088d565b81601614156200067f57507f1ff3f61797e538b70e619310d33f2a063e7eb59104e112e95738da1254dc34536200088d565b8160171415620006b157507f10c16ae9959cf8358980d9dd9616e48228737310a10e2b6b731c1a548f036c486200088d565b8160181415620006e357507f0ba433a63174a90ac20992e75e3095496812b652685b5e1a2eae0b1bf4e8fcd16200088d565b81601914156200071557507f019ddb9df2bc98d987d0dfeca9d2b643deafab8f7036562e627c3667266a044c6200088d565b81601a14156200074757507f2d3c88b23175c5a5565db928414c66d1912b11acf974b2e644caaac04739ce996200088d565b81601b14156200077957507f2eab55f6ae4e66e32c5189eed5c470840863445760f5ed7e7b69b2a62600f3546200088d565b81601c1415620007aa57507e2df37a2642621802383cf952bf4dd1f32e05433beeb1fd41031fb7eace979d6200088d565b81601d1415620007dc57507f104aeb41435db66c3e62feccc1d6f5d98d0a0ed75d1374db457cf462e3a1f4276200088d565b81601e14156200080e57507f1f3c6fd858e9a7d4b0d1f38e256a09d81d5a5e3c963987e2d4b814cfab7c6ebb6200088d565b81601f14156200084057507f2c7a07d20dff79d01fecedc1134284a8d08436606c93693b67e333f671bf69cc6200088d565b6040805162461bcd60e51b815260206004820152601360248201527f496e646578206f7574206f6620626f756e647300000000000000000000000000604482015290519081900360640190fd5b919050565b61159d806200205a83390190565b600080600060608486031215620008b5578283fd5b83519250602084015163ffffffff81168114620008d0578283fd5b60408501519092506001600160a01b0381168114620008ed578182fd5b809150509250925092565b60805160601c611726620009346000398061038152806103af52806106ed52806109a152806109cf52806110a5528061117b52506117266000f3fe6080604052600436106101095760003560e01c8063c79c2c2911610095578063e829558811610064578063e829558814610284578063ec732959146102a4578063ed33639f146102b9578063f178e47c146102db578063fc7e9c6f146102fb57610109565b8063c79c2c2914610227578063ca48e9c314610247578063cd87a3b414610267578063d0e30db01461027c57610109565b80638ea3099e116100dc5780638ea3099e1461019d57806390eeb02b146101bd578063a6a2b516146101d2578063ba70f757146101f2578063c2b40ae41461020757610109565b8063414a37ba1461010e5780634deeb4bd146101395780634ecf518b1461014e5780636d9833e314610170575b600080fd5b34801561011a57600080fd5b50610123610310565b604051610130919061144e565b60405180910390f35b61014c610147366004611300565b610322565b005b34801561015a57600080fd5b50610163610424565b6040516101309190611678565b34801561017c57600080fd5b5061019061018b3660046112e8565b610430565b6040516101309190611443565b3480156101a957600080fd5b506101236101b8366004611398565b6104a2565b3480156101c957600080fd5b5061016361066e565b3480156101de57600080fd5b506101236101ed3660046113cc565b61067a565b3480156101fe57600080fd5b5061012361069a565b34801561021357600080fd5b506101236102223660046112e8565b6106b5565b34801561023357600080fd5b5061014c610242366004611220565b6106c7565b34801561025357600080fd5b5061014c610262366004611321565b6107ea565b34801561027357600080fd5b50610163610946565b61014c61094b565b34801561029057600080fd5b5061012361029f3660046112e8565b610a40565b3480156102b057600080fd5b5061012361107f565b3480156102c557600080fd5b506102ce6110a3565b60405161013091906114ce565b3480156102e757600080fd5b506101236102f63660046112e8565b6110c7565b34801561030757600080fd5b506101636110d9565b6000805160206116d183398151915281565b600754421061034c5760405162461bcd60e51b8152600401610343906115c5565b60405180910390fd5b60005460065463ffffffff90911660020a1161037a5760405162461bcd60e51b81526004016103439061159d565b60006103a87f000000000000000000000000000000000000000000000000000000000000000033858561067a565b90506103d77f0000000000000000000000000000000000000000000000000000000000000000600454836104a2565b6004556006805460010190556040517f56ddf5dbd4137bafa88088fb239c1f88dd6450b2fe4d7857f4e8aa47ca5fa3fc9061041790339086908690611409565b60405180910390a1505050565b60005463ffffffff1681565b60008161043f5750600061049d565b60035463ffffffff16805b63ffffffff81166000908152600260205260409020548414156104725760019250505061049d565b63ffffffff81166104815750601e5b6000190163ffffffff808216908316141561044a576000925050505b919050565b60006000805160206116d18339815191528310610506576040805162461bcd60e51b815260206004820181905260248201527f5f6c6566742073686f756c6420626520696e7369646520746865206669656c64604482015290519081900360640190fd5b6000805160206116d183398151915282106105525760405162461bcd60e51b81526004018080602001828103825260218152602001806116b06021913960400191505060405180910390fd5b6040805163f47d33b560e01b8152600481018590526000602482018190528251869391926001600160a01b0389169263f47d33b592604480840193829003018186803b1580156105a157600080fd5b505afa1580156105b5573d6000803e3d6000fd5b505050506040513d60408110156105cb57600080fd5b50805160209091015190925090506000805160206116d18339815191528483089150856001600160a01b031663f47d33b583836040518363ffffffff1660e01b81526004018083815260200182815260200192505050604080518083038186803b15801561063857600080fd5b505afa15801561064c573d6000803e3d6000fd5b505050506040513d604081101561066257600080fd5b50519695505050505050565b60035463ffffffff1681565b60006106918561068b8787876104a2565b846104a2565b95945050505050565b60035463ffffffff1660009081526002602052604090205490565b60026020526000908152604090205481565b6005546106e65760405162461bcd60e51b8152600401610343906114e2565b600061071c7f00000000000000000000000000000000000000000000000000000000000000006001600160a01b038916886104a2565b905061072b81868686866110ed565b6000876001600160a01b03168760405161074490611406565b60006040518083038185875af1925050503d8060008114610781576040519150601f19603f3d011682016040523d82523d6000602084013e610786565b606091505b50509050806107a75760405162461bcd60e51b815260040161034390611653565b7f884edad9ce6fa2440d8a54cc123490eb96d2768479d49ff9c7366125a942436488886040516107d892919061142a565b60405180910390a15050505050505050565b600754421161080b5760405162461bcd60e51b815260040161034390611517565b60408051600280825260608201835260009260208301908036833701905050905060045460001c8160008151811061083f57fe5b6020026020010181815250508360001c8160018151811061085c57fe5b6020908102919091010152600354604051631e8e1e1360e01b8152680100000000000000009091046001600160a01b031690631e8e1e13906108a690869086908690600401611457565b60206040518083038186803b1580156108be57600080fd5b505afa1580156108d2573d6000803e3d6000fd5b505050506040513d601f19601f820116820180604052508101906108f691906112cc565b6109125760405162461bcd60e51b815260040161034390611566565b60058490556040517f428109f4e40826c368b5d4c737381461b2753d0b7c568dd5103280062fa3aefd90600090a150505050565b601e81565b600754421061096c5760405162461bcd60e51b8152600401610343906115c5565b60005460065463ffffffff90911660020a1161099a5760405162461bcd60e51b81526004016103439061159d565b60006109c87f000000000000000000000000000000000000000000000000000000000000000082333461067a565b90506109f77f0000000000000000000000000000000000000000000000000000000000000000600454836104a2565b6004556006805460010190556040517fe1fffcc4923d04b559f4d29a8bfc6cda04eb5b0d3c460751c2402c5c5cc9109c90610a35903390349061142a565b60405180910390a150565b600081610a6e57507f2fe54c60d3acabf3343a35b6eba15db4821b340f76e741e2249685ed4899af6c61049d565b8160011415610a9e57507f256a6135777eee2fd26f54b8b7037a25439d5235caee224154186d2b8a52e31d61049d565b8160021415610ace57507f1151949895e82ab19924de92c40a3d6f7bcb60d92b00504b8199613683f0c20061049d565b8160031415610afe57507f20121ee811489ff8d61f09fb89e313f14959a0f28bb428a20dba6b0b068b3bdb61049d565b8160041415610b2e57507f0a89ca6ffa14cc462cfedb842c30ed221a50a3d6bf022a6a57dc82ab24c157c961049d565b8160051415610b5e57507f24ca05c2b5cd42e890d6be94c68d0689f4f21c9cec9c0f13fe41d566dfb5495961049d565b8160061415610b8e57507f1ccb97c932565a92c60156bdba2d08f3bf1377464e025cee765679e604a7315c61049d565b8160071415610bbe57507f19156fbd7d1a8bf5cba8909367de1b624534ebab4f0f79e003bccdd1b182bdb461049d565b8160081415610bee57507f261af8c1f0912e465744641409f622d466c3920ac6e5ff37e36604cb11dfff8061049d565b8160091415610c1d57507e58459724ff6ca5a1652fcbc3e82b93895cf08e975b19beab3f54c217d1c00761049d565b81600a1415610c4d57507f1f04ef20dee48d39984d8eabe768a70eafa6310ad20849d4573c3c40c2ad1e3061049d565b81600b1415610c7d57507f1bea3dec5dab51567ce7e200a30f7ba6d4276aeaa53e2686f962a46c66d511e561049d565b81600c1415610cad57507f0ee0f941e2da4b9e31c3ca97a40d8fa9ce68d97c084177071b3cb46cd3372f0f61049d565b81600d1415610cdd57507f1ca9503e8935884501bbaf20be14eb4c46b89772c97b96e3b2ebf3a36a948bbd61049d565b81600e1415610d0d57507f133a80e30697cd55d8f7d4b0965b7be24057ba5dc3da898ee2187232446cb10861049d565b81600f1415610d3d57507f13e6d8fc88839ed76e182c2a779af5b2c0da9dd18c90427a644f7e148a6253b661049d565b8160101415610d6d57507f1eb16b057a477f4bc8f572ea6bee39561098f78f15bfb3699dcbb7bd8db6185461049d565b8160111415610d9d57507f0da2cb16a1ceaabf1c16b838f7a9e3f2a3a3088d9e0a6debaa748114620696ea61049d565b8160121415610dcd57507f24a3b3d822420b14b5d8cb6c28a574f01e98ea9e940551d2ebd75cee12649f9d61049d565b8160131415610dfd57507f198622acbd783d1b0d9064105b1fc8e4d8889de95c4c519b3f635809fe6afc0561049d565b8160141415610e2d57507f29d7ed391256ccc3ea596c86e933b89ff339d25ea8ddced975ae2fe30b5296d461049d565b8160151415610e5d57507f19be59f2f0413ce78c0c3703a3a5451b1d7f39629fa33abd11548a76065b296761049d565b8160161415610e8d57507f1ff3f61797e538b70e619310d33f2a063e7eb59104e112e95738da1254dc345361049d565b8160171415610ebd57507f10c16ae9959cf8358980d9dd9616e48228737310a10e2b6b731c1a548f036c4861049d565b8160181415610eed57507f0ba433a63174a90ac20992e75e3095496812b652685b5e1a2eae0b1bf4e8fcd161049d565b8160191415610f1d57507f019ddb9df2bc98d987d0dfeca9d2b643deafab8f7036562e627c3667266a044c61049d565b81601a1415610f4d57507f2d3c88b23175c5a5565db928414c66d1912b11acf974b2e644caaac04739ce9961049d565b81601b1415610f7d57507f2eab55f6ae4e66e32c5189eed5c470840863445760f5ed7e7b69b2a62600f35461049d565b81601c1415610fac57507e2df37a2642621802383cf952bf4dd1f32e05433beeb1fd41031fb7eace979d61049d565b81601d1415610fdc57507f104aeb41435db66c3e62feccc1d6f5d98d0a0ed75d1374db457cf462e3a1f42761049d565b81601e141561100c57507f1f3c6fd858e9a7d4b0d1f38e256a09d81d5a5e3c963987e2d4b814cfab7c6ebb61049d565b81601f141561103c57507f2c7a07d20dff79d01fecedc1134284a8d08436606c93693b67e333f671bf69cc61049d565b6040805162461bcd60e51b8152602060048201526013602482015272496e646578206f7574206f6620626f756e647360681b604482015290519081900360640190fd5b7f2fe54c60d3acabf3343a35b6eba15db4821b340f76e741e2249685ed4899af6c81565b7f000000000000000000000000000000000000000000000000000000000000000081565b60016020526000908152604090205481565b600354640100000000900463ffffffff1681565b8460005b60005463ffffffff90811690821610156111ad5760008085858463ffffffff1681811061111a57fe5b905060200201602081019061112f91906112a9565b156111575787878463ffffffff1681811061114657fe5b905060200201359150839050611176565b83915087878463ffffffff1681811061116c57fe5b9050602002013590505b6111a17f000000000000000000000000000000000000000000000000000000000000000083836104a2565b935050506001016110f1565b5060055481146111cf5760405162461bcd60e51b815260040161034390611610565b505050505050565b60008083601f8401126111e8578182fd5b50813567ffffffffffffffff8111156111ff578182fd5b602083019150836020808302850101111561121957600080fd5b9250929050565b60008060008060008060808789031215611238578182fd5b863561124381611689565b955060208701359450604087013567ffffffffffffffff80821115611266578384fd5b6112728a838b016111d7565b9096509450606089013591508082111561128a578384fd5b5061129789828a016111d7565b979a9699509497509295939492505050565b6000602082840312156112ba578081fd5b81356112c5816116a1565b9392505050565b6000602082840312156112dd578081fd5b81516112c5816116a1565b6000602082840312156112f9578081fd5b5035919050565b60008060408385031215611312578182fd5b50508035926020909101359150565b600080600060408486031215611335578283fd5b83359250602084013567ffffffffffffffff80821115611353578384fd5b818601915086601f830112611366578384fd5b813581811115611374578485fd5b876020828501011115611385578485fd5b6020830194508093505050509250925092565b6000806000606084860312156113ac578283fd5b83356113b781611689565b95602085013595506040909401359392505050565b600080600080608085870312156113e1578384fd5b84356113ec81611689565b966020860135965060408601359560600135945092505050565b90565b6001600160a01b039390931683526020830191909152604082015260600190565b6001600160a01b03929092168252602082015260400190565b901515815260200190565b90815260200190565b600060408252836040830152838560608401378060608584010152601f19601f85011682016060810160206060858403018186015281865180845260808501915082880194508593505b808410156114c157845182529382019360019390930192908201906114a1565b5098975050505050505050565b6001600160a01b0391909116815260200190565b6020808252818101527f54686520726f6c6c757020686173206e6f74206265656e207265736f6c766564604082015260600190565b6020808252602f908201527f54686520726f6c6c757020686173206e6f7420656e746572656420746865207260408201526e65736f6c7574696f6e20737461676560881b606082015260800190565b60208082526019908201527f50726f6f6620766572696669636174696f6e206661696c656400000000000000604082015260600190565b6020808252600e908201526d149bdb1b1d5c081a5cc8199d5b1b60921b604082015260600190565b6020808252602b908201527f54686520726f6c6c75702068617320656e746572656420746865207265736f6c60408201526a7574696f6e20737461676560a81b606082015260800190565b60208082526023908201527f50726f766964656420726f6f7420646f6573206e6f74206d61746368207265736040820152621d5b1d60ea1b606082015260800190565b6020808252600b908201526a14d95b990819985a5b195960aa1b604082015260600190565b63ffffffff91909116815260200190565b6001600160a01b038116811461169e57600080fd5b50565b801515811461169e57600080fdfe5f72696768742073686f756c6420626520696e7369646520746865206669656c6430644e72e131a029b85045b68181585d2833e84879b9709143e1f593f0000001a2646970667358221220b4f64003316a87c42cb8e70d2bdfee59889e937d52855da51300fd50b5ff0ae064736f6c63430007060033608060405234801561001057600080fd5b5061157d806100206000396000f3fe608060405234801561001057600080fd5b506004361061002b5760003560e01c80631e8e1e1314610030575b600080fd5b61015a6004803603604081101561004657600080fd5b81019060208101813564010000000081111561006157600080fd5b82018360208201111561007357600080fd5b8035906020019184600183028401116401000000008311171561009557600080fd5b91908080601f01602080910402602001604051908101604052809392919081815260200183838082843760009201919091525092959493602081019350359150506401000000008111156100e857600080fd5b8201836020820111156100fa57600080fd5b8035906020019184602083028401116401000000008311171561011c57600080fd5b91908080602002602001604051908101604052809392919081815260200183836020028082843760009201919091525092955061016e945050505050565b604080519115158252519081900360200190f35b60006114ba565b600080600184846000805b82156101a2575092938183058581029091039350909181830290039081610180565b50505060018111156101b357600080fd5b505060008112156101c15783015b9392505050565b60405181602084028301815160208301925060005b8284101561020e578185526000805160206115288339815191528451830991506020850194506020840193506101dd565b61022660008051602061152883398151915283610175565b91506020850394506020840393508592505b8284111561027d5760008051602061152883398151915285518309905060008051602061152883398151915284518309818552601f1995860195909401939150610238565b5090915250505050565b60008051602061152883398151915281106102a6576000805260206000f35b50565b6103208151146102bd576000805260206000f35b6102cb610260820151610287565b6102d9610280820151610287565b6102e76102a0820151610287565b6102f56102c0820151610287565b6103036102e0820151610287565b610311610300820151610287565b6102a6610320820151610287565b60008060208501516102e085015260408501516103008501526020830151610320850152602080018301516103408501526040602001830151610360850152606060200183015161038085015260806020018301516103a085015260a06020018301516103c08501526000805160206115288339815191526101006102e0860120069050806020850152600080516020611528833981519152602080860120066040850152600080516020611528833981519152604060e085012006600085015260008051602061152883398151915260c061012085012006915081606085015260008051602061152883398151915282820960a0850152506000805160206115288339815191528182099050600080516020611528833981519152818209905060008051602061152883398151915281820990506000805160206115288339815191528182099050600080516020611528833981519152818209905060008051602061152883398151915281820990506000805160206115288339815191528182099050600080516020611528833981519152818209905060008051602061152883398151915281820990506000805160206115288339815191528182099050600080516020611528833981519152818209905060008051602061152883398151915281820990506000805160206115288339815191528182099050600080516020611528833981519152818209905060008051602061152883398151915281820990506000805160206115288339815191528182099050806080840152600080516020611528833981519152806001830301069050806102608401528061028084015260008051602061152883398151915260e0610260840120068060c085015260008051602061152883398151915281820991508160e0850152600080516020611528833981519152818309915081610100850152600080516020611528833981519152818309915081610120850152600080516020611528833981519152818309915081610140850152600080516020611528833981519152818309610160850152505060806101e0919091012060008051602061152883398151915290066101809091015250565b60016000805160206115288339815191528060008051602061152883398151915283606086015103010662010000096102a08301526000805160206115288339815191527eeeb2cb5981ed45649abebde081dcff16c8601de4347e7dd1628ba2daac43b7820990506000805160206115288339815191528060008051602061152883398151915283606086015103010662010000096102c08301526106f6600361028084016101c8565b61026082015160019150600080516020611528833981519152816102a0850151096102a08401526000805160206115288339815191527eeeb2cb5981ed45649abebde081dcff16c8601de4347e7dd1628ba2daac43b78309915060008051602061152883398151915280826102c08601510983096102c0840152505050565b60006000805160206115288339815191528060008051602061152883398151915260208601516102a0860151098303010690506000805160206115288339815191528060008051602061152883398151915260408601516102c086015109830301069050806101a0830152505050565b60008060006000805160206115288339815191526101a086015161032086015108925060008051602061152883398151915260208601516102c08601510991506000805160206115288339815191526102608501518308915060008051602061152883398151915260408601518308915060008051602061152883398151915260208601516102e086015109905060008051602061152883398151915261028085015182089050600080516020611528833981519152604086015182089050600080516020611528833981519152818309915060008051602061152883398151915260408601516102a086015108905060008051602061152883398151915281830991506000805160206115288339815191526103008501518309915060008051602061152883398151915260008601518309915060008051602061152883398151915260008601516102a0870151099050600080516020611528833981519152600086015182099050600080516020611528833981519152818308915050600080516020611528833981519152816000805160206115288339815191528401030691505060008051602061152883398151915261028084015182099050806101c0840152505050565b81518152602091820151910152565b6040518151815260208201516020820152825160408201526020830151606082015260408260808360066107d05a03fa9050806109ff576000805260206000f35b505050565b6000604051835181526020840151602082015284604082015260408160608360076107d05a03fa915081610a3c576000805260206000f35b825160408201526020830151606082015260408360808360066107d05a03fa91505080610a6d576000805260206000f35b50505050565b600060405183815284602082015285604082015260408160608360076107d05a03fa915081610aa6576000805260206000f35b825160408201526020830151606082015260408360808360066107d05a03fa91505080610ad7576000805260206000f35b5050505050565b600060405183815284602082015285604082015260408360608360076107d05a03fa91505080610ad7576000805260206000f35b6101e08201610b256101e08301826109af565b6109ff610180840151610220840183610a04565b600080610220840160008051602061152883398151915260c0860151610260860151099250610baa837f06989fbcb399f5d11ed4df10d96f931ee17113c3e6f7f837c08c028e08d7e45c7f1b04eee529090cb38cda26d1cd56524615df43b0e1a825bd85ff9a193d7f7d6e84610ade565b60008051602061152883398151915261028085015184099250610c0f837f22a7c4d81096d2f238cbebbb4643e9c37b3408226dc680cf9159fa36ea0c6d817f10ef9a1075102c26c48717cbe78eab75eee3efa23002004fef0f0a452ad1530a84610a73565b60008051602061152883398151915260c0860151610280860151099250610c78837f0bdacd896791bb725589c1ed1740c320cb3e8b995b7ba68ca68a75aa7334f2ab7f2e534c40f8cb84146669866e2cbb6c0ca68f86b273c35e1e9dcf31ba221a8aa884610a73565b60008051602061152883398151915260c08601516102a0860151099250610ce1837f122630d9ab4026d5b33419eef8a4fa3b265d9d9287fb15c7675a544fe7bdd9a67f1ca2afa57339344627aaa9d869a9d86ec830e708653f9089fedc0682cab38e8384610a73565b60c08501519250610d34837f1160ffab1afa591a46cad48232f20ba5349d704bb82e791d17f82524e25ac0737f205fe38f803092eeed42d756d792d37043d4aaed91fee1184a00f0c4e6a4826d84610a73565b60008051602061152883398151915260a086015161026086015108925060008051602061152883398151915260408601518408925060008051602061152883398151915260a0860151600209915060008051602061152883398151915261028085015183089150600080516020611528833981519152604086015183089150600080516020611528833981519152828409925060008051602061152883398151915260a086015160030991506000805160206115288339815191526102a085015183089150600080516020611528833981519152604086015183089150600080516020611528833981519152828409925060008051602061152883398151915260008601518409925060008051602061152883398151915260c08601518409925060008051602061152883398151915260008601516102a087015109915060008051602061152883398151915260008601518309915060008051602061152883398151915260c086015183099150600080516020611528833981519152828408925060008051602061152883398151915261018086015184089250610edd8360e0860183610a04565b6000805160206115288339815191526102c08501516020870151099250600080516020611528833981519152610260850151840892506000805160206115288339815191526040860151840892506000805160206115288339815191526102e0850151602087015109915060008051602061152883398151915261028085015183089150600080516020611528833981519152604086015183089150600080516020611528833981519152828409925060008051602061152883398151915260008601518409925060008051602061152883398151915260c086015184099250600080516020611528833981519152602086015184099250600080516020611528833981519152610300850151840960008051602061152883398151915290810306925061104d837f0c2459a0d25f859391a1731e46e4374a5ca41f84bf87c8a69a47c8f1546e99ac7f14cbedbff7f010e770359b4855f2ffa5b48d291d5c33f2dfb535064bdc487ae184610a73565b61105b6101208501826109be565b6080850151925061107183610160860183610a04565b6000805160206115288339815191528384099250611094836101a0860183610a04565b6110a660e08601516020860183610a04565b6110b96101008601516060860183610a04565b6110cc61012086015160a0860183610a04565b61111d6101408601517f29fdb911991979b22d97222fa69970cbdc196755565d29bccca575bdd45a636f7f0272665acc59cc8fc8d44091d5901b60a9422da623d03a2376ff3433d95f951c84610a73565b61116e6101608601517f095fe8b7bf48ec802bed11c73a4d7023f975966846ea428e5ae21161b8515ec87f10209843ffb42c6cafaa4a56f0c09a0fd77ed7c6199015934edf6b0ecd296fc584610a73565b6101c085015192506000805160206115288339815191528060c087015161032087015109840892506000805160206115288339815191528060e08701516102608701510984089250600080516020611528833981519152806101008701516102808701510984089250600080516020611528833981519152806101208701516102a08701510984089250600080516020611528833981519152806101408701516102c08701510984089250600080516020611528833981519152806101608701516102e087015109840892506000805160206115288339815191528061018087015161030087015109840860008051602061152883398151915290810306925061127c836002600184610a73565b60608501519250611292836101e0860183610a04565b60008051602061152883398151915260608601516101808701510992506000805160206115288339815191527eeeb2cb5981ed45649abebde081dcff16c8601de4347e7dd1628ba2daac43b784099250610ad783610220860183610a04565b60006040516101e0830151815260206101e08401015160208201527f26186a2d65ee4d2f9c9a5b91f86597d35f192cd120caf7e935d8443d1938e23d60408201527f30441fd1b5d3370482c42152a8899027716989a6996c2535bc9f7fee8aaef79e60608201527f1970ea81dd6992adfbc571effb03503adbbb6a857f578403c6c40e22d65b3c0260808201527f054793348f12c0cf5622c340573cb277586319de359ab9389778f689786b1e4860a082015261022083015160c08201526020610220840101517f30644e72e131a029b85045b68181585d97816a916871ca8d3c208c16d87cfd47817f30644e72e131a029b85045b68181585d97816a916871ca8d3c208c16d87cfd47030690508060e0830152507f198e9393920d483a7260bfb731fb5d25f1aa493335a9e71297e485b7aef312c26101008201527f1800deef121f1e76426a00665e5c4479674322d4f75edadd46debd5cd992f6ed6101208201527f090689d0585ff075ec9e99ad690c3395bc4b313370b38ef355acdadcd122975b6101408201527f12c85ea5db8c6deb4aab71808dcb408fe3d1e7690c43d37b4ce6cc0166fa7daa6101608201526020816101808360086107d05a03fa90511692915050565b6040516102e081016040526114ce846102a9565b6114d983828661031f565b6114e28161064c565b6114ec8382610775565b6114f681856107e5565b6115008185610b12565b61150a8185610b39565b611513816112f1565b6102e0820360405280600052505060206000f3fe30644e72e131a029b85045b68181585d2833e84879b9709143e1f593f0000001a2646970667358221220d19f3d9e14753fe38aeceb244b86479fbdd62e007dac1f0250e0a6329505472464736f6c634300070600335f6c6576656c732073686f756c642062652067726561746572207468616e207a65726f",
    "linkReferences": {}
  },
  "methodIdentifiers": {
    "FIELD_SIZE()": "414a37ba",
    "ROOT_HISTORY_SIZE()": "cd87a3b4",
    "ZERO_VALUE()": "ec732959",
    "currentRootIndex()": "90eeb02b",
    "deposit()": "d0e30db0",
    "filledSubtrees(uint256)": "f178e47c",
    "getLastRoot()": "ba70f757",
    "hashLeftRight(address,bytes32,bytes32)": "8ea3099e",
    "hashThree(address,bytes32,bytes32,bytes32)": "a6a2b516",
    "hasher()": "ed33639f",
    "isKnownRoot(bytes32)": "6d9833e3",
    "levels()": "4ecf518b",
    "nextIndex()": "fc7e9c6f",
    "resolve(bytes32,bytes)": "ca48e9c3",
    "roots(uint256)": "c2b40ae4",
    "transfer(bytes32,bytes32)": "4deeb4bd",
    "withdraw(address,uint256,bytes32[],bool[])": "c79c2c29",
    "zeros(uint256)": "e8295588"
  },
  "id": 11
}